{
  "_format": "hh-sol-artifact-1",
  "contractName": "Lottery",
  "sourceName": "contracts/Lottery.sol",
  "abi": [
    {
      "inputs": [],
      "stateMutability": "nonpayable",
      "type": "constructor"
    },
    {
      "anonymous": false,
      "inputs": [
        {
          "indexed": false,
          "internalType": "bool",
          "name": "isOpen",
          "type": "bool"
        }
      ],
      "name": "LotteryStateChanged",
      "type": "event"
    },
    {
      "anonymous": false,
      "inputs": [
        {
          "indexed": true,
          "internalType": "address",
          "name": "player",
          "type": "address"
        },
        {
          "indexed": false,
          "internalType": "uint256",
          "name": "tickets",
          "type": "uint256"
        }
      ],
      "name": "NewPlayer",
      "type": "event"
    },
    {
      "anonymous": false,
      "inputs": [
        {
          "indexed": true,
          "internalType": "address",
          "name": "winner",
          "type": "address"
        },
        {
          "indexed": false,
          "internalType": "uint256",
          "name": "amount",
          "type": "uint256"
        }
      ],
      "name": "WinnerSelected",
      "type": "event"
    },
    {
      "inputs": [
        {
          "internalType": "uint256",
          "name": "numTickets",
          "type": "uint256"
        }
      ],
      "name": "enterLottery",
      "outputs": [],
      "stateMutability": "payable",
      "type": "function"
    },
    {
      "inputs": [],
      "name": "getBalance",
      "outputs": [
        {
          "internalType": "uint256",
          "name": "",
          "type": "uint256"
        }
      ],
      "stateMutability": "view",
      "type": "function"
    },
    {
      "inputs": [
        {
          "internalType": "address",
          "name": "player",
          "type": "address"
        }
      ],
      "name": "getPlayerTicketCount",
      "outputs": [
        {
          "internalType": "uint256",
          "name": "",
          "type": "uint256"
        }
      ],
      "stateMutability": "view",
      "type": "function"
    },
    {
      "inputs": [],
      "name": "getPlayers",
      "outputs": [
        {
          "internalType": "address[]",
          "name": "",
          "type": "address[]"
        }
      ],
      "stateMutability": "view",
      "type": "function"
    },
    {
      "inputs": [],
      "name": "lastWinner",
      "outputs": [
        {
          "internalType": "address",
          "name": "",
          "type": "address"
        }
      ],
      "stateMutability": "view",
      "type": "function"
    },
    {
      "inputs": [],
      "name": "lotteryId",
      "outputs": [
        {
          "internalType": "uint256",
          "name": "",
          "type": "uint256"
        }
      ],
      "stateMutability": "view",
      "type": "function"
    },
    {
      "inputs": [],
      "name": "lotteryOpen",
      "outputs": [
        {
          "internalType": "bool",
          "name": "",
          "type": "bool"
        }
      ],
      "stateMutability": "view",
      "type": "function"
    },
    {
      "inputs": [
        {
          "internalType": "uint256",
          "name": "",
          "type": "uint256"
        }
      ],
      "name": "lotteryWinners",
      "outputs": [
        {
          "internalType": "address",
          "name": "",
          "type": "address"
        }
      ],
      "stateMutability": "view",
      "type": "function"
    },
    {
      "inputs": [],
      "name": "manager",
      "outputs": [
        {
          "internalType": "address",
          "name": "",
          "type": "address"
        }
      ],
      "stateMutability": "view",
      "type": "function"
    },
    {
      "inputs": [],
      "name": "pickWinner",
      "outputs": [],
      "stateMutability": "nonpayable",
      "type": "function"
    },
    {
      "inputs": [
        {
          "internalType": "address",
          "name": "",
          "type": "address"
        }
      ],
      "name": "playerTickets",
      "outputs": [
        {
          "internalType": "uint256",
          "name": "",
          "type": "uint256"
        }
      ],
      "stateMutability": "view",
      "type": "function"
    },
    {
      "inputs": [
        {
          "internalType": "uint256",
          "name": "",
          "type": "uint256"
        }
      ],
      "name": "players",
      "outputs": [
        {
          "internalType": "address",
          "name": "",
          "type": "address"
        }
      ],
      "stateMutability": "view",
      "type": "function"
    },
    {
      "inputs": [],
      "name": "ticketPrice",
      "outputs": [
        {
          "internalType": "uint256",
          "name": "",
          "type": "uint256"
        }
      ],
      "stateMutability": "view",
      "type": "function"
    },
    {
      "inputs": [],
      "name": "toggleLotteryState",
      "outputs": [],
      "stateMutability": "nonpayable",
      "type": "function"
    }
  ],
  "bytecode": "0x6080604052662386f26fc1000060045534801561001b57600080fd5b50336000806101000a81548173ffffffffffffffffffffffffffffffffffffffff021916908373ffffffffffffffffffffffffffffffffffffffff1602179055506001600560006101000a81548160ff02191690831515021790555060016003819055506115cf8061008e6000396000f3fe6080604052600436106100dd5760003560e01c8063bb0341ec1161007f578063e580f47b11610059578063e580f47b1461027d578063eaa8108f146102a8578063f71d96cb146102e5578063fe18818414610322576100dd565b8063bb0341ec146101fe578063c60c4ae914610215578063d7a1a5b914610240576100dd565b80633fd43098116100bb5780633fd4309814610175578063481c6a75146101915780635d495aea146101bc5780638b5b9ccc146101d3576100dd565b806312065fe0146100e25780631209b1f61461010d5780631a89a43b14610138575b600080fd5b3480156100ee57600080fd5b506100f761034d565b6040516101049190610e57565b60405180910390f35b34801561011957600080fd5b50610122610355565b60405161012f9190610e57565b60405180910390f35b34801561014457600080fd5b5061015f600480360381019061015a9190610ed5565b61035b565b60405161016c9190610e57565b60405180910390f35b61018f600480360381019061018a9190610f2e565b6103a4565b005b34801561019d57600080fd5b506101a66105d7565b6040516101b39190610f6a565b60405180910390f35b3480156101c857600080fd5b506101d16105fb565b005b3480156101df57600080fd5b506101e8610ba9565b6040516101f59190611043565b60405180910390f35b34801561020a57600080fd5b50610213610c37565b005b34801561022157600080fd5b5061022a610d37565b6040516102379190611080565b60405180910390f35b34801561024c57600080fd5b5061026760048036038101906102629190610f2e565b610d4a565b6040516102749190610f6a565b60405180910390f35b34801561028957600080fd5b50610292610d7d565b60405161029f9190610e57565b60405180910390f35b3480156102b457600080fd5b506102cf60048036038101906102ca9190610ed5565b610d83565b6040516102dc9190610e57565b60405180910390f35b3480156102f157600080fd5b5061030c60048036038101906103079190610f2e565b610d9b565b6040516103199190610f6a565b60405180910390f35b34801561032e57600080fd5b50610337610dda565b6040516103449190610f6a565b60405180910390f35b600047905090565b60045481565b6000600760008373ffffffffffffffffffffffffffffffffffffffff1673ffffffffffffffffffffffffffffffffffffffff168152602001908152602001600020549050919050565b600560009054906101000a900460ff166103f3576040517f08c379a00000000000000000000000000000000000000000000000000000000081526004016103ea906110f8565b60405180910390fd5b806004546104019190611147565b3414610442576040517f08c379a0000000000000000000000000000000000000000000000000000000008152600401610439906111d5565b60405180910390fd5b60008111610485576040517f08c379a000000000000000000000000000000000000000000000000000000000815260040161047c90611241565b60405180910390fd5b6000600760003373ffffffffffffffffffffffffffffffffffffffff1673ffffffffffffffffffffffffffffffffffffffff1681526020019081526020016000205403610530576001339080600181540180825580915050600190039060005260206000200160009091909190916101000a81548173ffffffffffffffffffffffffffffffffffffffff021916908373ffffffffffffffffffffffffffffffffffffffff1602179055505b80600760003373ffffffffffffffffffffffffffffffffffffffff1673ffffffffffffffffffffffffffffffffffffffff168152602001908152602001600020600082825461057f9190611261565b925050819055503373ffffffffffffffffffffffffffffffffffffffff167f6b8fe0f067804a78a12efa88b8428446c8d8a703d5604dffc63ac27fcbdcfd0d826040516105cc9190610e57565b60405180910390a250565b60008054906101000a900473ffffffffffffffffffffffffffffffffffffffff1681565b60008054906101000a900473ffffffffffffffffffffffffffffffffffffffff1673ffffffffffffffffffffffffffffffffffffffff163373ffffffffffffffffffffffffffffffffffffffff1614610689576040517f08c379a0000000000000000000000000000000000000000000000000000000008152600401610680906112e1565b60405180910390fd5b600560009054906101000a900460ff16156106d9576040517f08c379a00000000000000000000000000000000000000000000000000000000081526004016106d090611373565b60405180910390fd5b600060018054905011610721576040517f08c379a0000000000000000000000000000000000000000000000000000000008152600401610718906113df565b60405180910390fd5b6000805b6001805490508110156107d057600760006001838154811061074a576107496113ff565b5b9060005260206000200160009054906101000a900473ffffffffffffffffffffffffffffffffffffffff1673ffffffffffffffffffffffffffffffffffffffff1673ffffffffffffffffffffffffffffffffffffffff16815260200190815260200160002054826107bb9190611261565b915080806107c89061142e565b915050610725565b5060008144426001805490506040516020016107ee93929190611497565b6040516020818303038152906040528051906020012060001c6108119190611503565b905060008080600090505b600180549050811015610915576007600060018381548110610841576108406113ff565b5b9060005260206000200160009054906101000a900473ffffffffffffffffffffffffffffffffffffffff1673ffffffffffffffffffffffffffffffffffffffff1673ffffffffffffffffffffffffffffffffffffffff16815260200190815260200160002054836108b29190611261565b92508284101561090257600181815481106108d0576108cf6113ff565b5b9060005260206000200160009054906101000a900473ffffffffffffffffffffffffffffffffffffffff169150610915565b808061090d9061142e565b91505061081c565b5060006064605a476109279190611147565b6109319190611534565b9050600081476109419190611565565b90508273ffffffffffffffffffffffffffffffffffffffff166108fc839081150290604051600060405180830381858888f19350505050158015610989573d6000803e3d6000fd5b5060008054906101000a900473ffffffffffffffffffffffffffffffffffffffff1673ffffffffffffffffffffffffffffffffffffffff166108fc829081150290604051600060405180830381858888f193505050501580156109f0573d6000803e3d6000fd5b5082600260006101000a81548173ffffffffffffffffffffffffffffffffffffffff021916908373ffffffffffffffffffffffffffffffffffffffff1602179055508260066000600354815260200190815260200160002060006101000a81548173ffffffffffffffffffffffffffffffffffffffff021916908373ffffffffffffffffffffffffffffffffffffffff1602179055508273ffffffffffffffffffffffffffffffffffffffff167f75060f9e79552df167b73353fee6237a75bb5ba8ea022f77224e32f152138bcb83604051610acc9190610e57565b60405180910390a260036000815480929190610ae79061142e565b919050555060016000610afa9190610e00565b60005b600180549050811015610ba05760006007600060018481548110610b2457610b236113ff565b5b9060005260206000200160009054906101000a900473ffffffffffffffffffffffffffffffffffffffff1673ffffffffffffffffffffffffffffffffffffffff1673ffffffffffffffffffffffffffffffffffffffff168152602001908152602001600020819055508080610b989061142e565b915050610afd565b50505050505050565b60606001805480602002602001604051908101604052809291908181526020018280548015610c2d57602002820191906000526020600020905b8160009054906101000a900473ffffffffffffffffffffffffffffffffffffffff1673ffffffffffffffffffffffffffffffffffffffff1681526020019060010190808311610be3575b5050505050905090565b60008054906101000a900473ffffffffffffffffffffffffffffffffffffffff1673ffffffffffffffffffffffffffffffffffffffff163373ffffffffffffffffffffffffffffffffffffffff1614610cc5576040517f08c379a0000000000000000000000000000000000000000000000000000000008152600401610cbc906112e1565b60405180910390fd5b600560009054906101000a900460ff1615600560006101000a81548160ff0219169083151502179055507ffbcf86aec5c30570e138b8ebabce850c7bbd56a9dacfa759a57157465050aa6b600560009054906101000a900460ff16604051610d2d9190611080565b60405180910390a1565b600560009054906101000a900460ff1681565b60066020528060005260406000206000915054906101000a900473ffffffffffffffffffffffffffffffffffffffff1681565b60035481565b60076020528060005260406000206000915090505481565b60018181548110610dab57600080fd5b906000526020600020016000915054906101000a900473ffffffffffffffffffffffffffffffffffffffff1681565b600260009054906101000a900473ffffffffffffffffffffffffffffffffffffffff1681565b5080546000825590600052602060002090810190610e1e9190610e21565b50565b5b80821115610e3a576000816000905550600101610e22565b5090565b6000819050919050565b610e5181610e3e565b82525050565b6000602082019050610e6c6000830184610e48565b92915050565b600080fd5b600073ffffffffffffffffffffffffffffffffffffffff82169050919050565b6000610ea282610e77565b9050919050565b610eb281610e97565b8114610ebd57600080fd5b50565b600081359050610ecf81610ea9565b92915050565b600060208284031215610eeb57610eea610e72565b5b6000610ef984828501610ec0565b91505092915050565b610f0b81610e3e565b8114610f1657600080fd5b50565b600081359050610f2881610f02565b92915050565b600060208284031215610f4457610f43610e72565b5b6000610f5284828501610f19565b91505092915050565b610f6481610e97565b82525050565b6000602082019050610f7f6000830184610f5b565b92915050565b600081519050919050565b600082825260208201905092915050565b6000819050602082019050919050565b610fba81610e97565b82525050565b6000610fcc8383610fb1565b60208301905092915050565b6000602082019050919050565b6000610ff082610f85565b610ffa8185610f90565b935061100583610fa1565b8060005b8381101561103657815161101d8882610fc0565b975061102883610fd8565b925050600181019050611009565b5085935050505092915050565b6000602082019050818103600083015261105d8184610fe5565b905092915050565b60008115159050919050565b61107a81611065565b82525050565b60006020820190506110956000830184611071565b92915050565b600082825260208201905092915050565b7f4c6f74746572792069732063757272656e746c7920636c6f7365640000000000600082015250565b60006110e2601b8361109b565b91506110ed826110ac565b602082019050919050565b60006020820190508181036000830152611111816110d5565b9050919050565b7f4e487b7100000000000000000000000000000000000000000000000000000000600052601160045260246000fd5b600061115282610e3e565b915061115d83610e3e565b925082820261116b81610e3e565b9150828204841483151761118257611181611118565b5b5092915050565b7f496e636f7272656374204554482073656e740000000000000000000000000000600082015250565b60006111bf60128361109b565b91506111ca82611189565b602082019050919050565b600060208201905081810360008301526111ee816111b2565b9050919050565b7f4d75737420627579206174206c65617374206f6e65207469636b657400000000600082015250565b600061122b601c8361109b565b9150611236826111f5565b602082019050919050565b6000602082019050818103600083015261125a8161121e565b9050919050565b600061126c82610e3e565b915061127783610e3e565b925082820190508082111561128f5761128e611118565b5b92915050565b7f4f6e6c79206d616e616765722063616e2063616c6c2074686973000000000000600082015250565b60006112cb601a8361109b565b91506112d682611295565b602082019050919050565b600060208201905081810360008301526112fa816112be565b9050919050565b7f4c6f7474657279206d75737420626520636c6f73656420746f207069636b206160008201527f2077696e6e657200000000000000000000000000000000000000000000000000602082015250565b600061135d60278361109b565b915061136882611301565b604082019050919050565b6000602082019050818103600083015261138c81611350565b9050919050565b7f4e6f20706c617965727320696e20746865206c6f747465727900000000000000600082015250565b60006113c960198361109b565b91506113d482611393565b602082019050919050565b600060208201905081810360008301526113f8816113bc565b9050919050565b7f4e487b7100000000000000000000000000000000000000000000000000000000600052603260045260246000fd5b600061143982610e3e565b91507fffffffffffffffffffffffffffffffffffffffffffffffffffffffffffffffff820361146b5761146a611118565b5b600182019050919050565b6000819050919050565b61149161148c82610e3e565b611476565b82525050565b60006114a38286611480565b6020820191506114b38285611480565b6020820191506114c38284611480565b602082019150819050949350505050565b7f4e487b7100000000000000000000000000000000000000000000000000000000600052601260045260246000fd5b600061150e82610e3e565b915061151983610e3e565b925082611529576115286114d4565b5b828206905092915050565b600061153f82610e3e565b915061154a83610e3e565b92508261155a576115596114d4565b5b828204905092915050565b600061157082610e3e565b915061157b83610e3e565b925082820390508181111561159357611592611118565b5b9291505056fea2646970667358221220c610a1b421789fef03edf60ff24adb6a6a44f0360e8ad9fa2a13c96aecbb2cfc64736f6c63430008140033",
  "linkReferences": {},
  "deployedLinkReferences": {}
}